:100000000C9465000C948D000C948D000C948D0064
:100010000C948D000C948D000C948D000C948D002C
:100020000C948D000C948D000C948D000C948D001C
:100030000C948D000C948D000C948D000C948D000C
:100040000C94F9020C948D000C9469030C944303F6
:100050000C948D000C948D000C948D000C948D00EC
:100060000C948D000C948D000000000023002600ED
:1000700029000001020304050000000024002700FD
:100080002A0000000000250028002B0004040404BE
:100090000404040402020202020203030303030332
:1000A000010204081020408001020408102001020F
:1000B00004081020000000080002010000030407EB
:1000C00000000000000000009B0311241FBECFEFC2
:1000D000D8E0DEBFCDBF21E0A8E1B1E001C01D92B4
:1000E000A03EB207E1F711E0A0E0B1E0E2E5FCE0FC
:1000F00002C005900D92A831B107D9F710E0C5E60E
:10010000D0E004C02197FE010E942106C436D10729
:10011000C9F70E94EF030C9427060C940000FC0121
:10012000538D448D252F30E0842F90E0821B930B5C
:10013000541710F0CF96089501970895FC01918D02
:10014000828D981761F0A28DAE0FBF2FB11D5D9605
:100150008C91928D9F5F9F73928F90E008958FEFA7
:100160009FEF0895FC01918D828D981731F0828D5B
:10017000E80FF11D858D90E008958FEF9FEF0895B2
:10018000FC01918D228D892F90E0805C9F4F821B16
:1001900091098F7399270895FC01A48DA80FB92F99
:1001A000B11DA35ABF4F2C91848D90E001968F739F
:1001B0009927848FA689B7892C93A089B1898C91BE
:1001C000837080648C93938D848D981306C002880D
:1001D000F389E02D80818F7D80830895EF92FF92D7
:1001E0000F931F93CF93DF93EC0181E0888F9B8D5A
:1001F0008C8D98131AC0E889F989808185FF15C014
:100200009FB7F894EE89FF896083E889F989808136
:100210008370806480839FBF81E090E0DF91CF9105
:100220001F910F91FF90EF900895F62E0B8D10E027
:100230000F5F1F4F0F731127E02E8C8D8E110CC096
:100240000FB607FCFACFE889F989808185FFF5CFE1
:10025000CE010E94CC00F1CFEB8DEC0FFD2FF11DF4
:10026000E35AFF4FF0829FB7F8940B8FEA89FB891E
:1002700080818062CFCFCF93DF93EC01888D88237C
:10028000B9F0AA89BB89E889F9898C9185FD03C0F9
:10029000808186FD0DC00FB607FCF7CF8C9185FFDE
:1002A000F2CF808185FFEDCFCE010E94CC00E9CF57
:1002B000DF91CF91089582E291E00E94C00021E099
:1002C000892B09F420E0822F089580E090E0892BAB
:1002D00029F00E945B0181110C9400000895833085
:1002E00081F028F4813099F08230A9F008958730A8
:1002F000A9F08830C9F08430B1F4809180008F7DFE
:1003000003C0809180008F7780938000089584B52A
:100310008F7784BD089584B58F7DFBCF8091B00029
:100320008F778093B00008958091B0008F7DF9CFD2
:100330001F93CF93DF93282F30E0F901EC54FF4F48
:100340008491F901E056FF4FD491F901E457FF4F32
:10035000C491CC23A9F0162F81110E946F01EC2FBC
:10036000F0E0EE0FFF1FEE57FF4FA591B4918FB74E
:10037000F894EC91111108C0D095DE23DC938FBF67
:10038000DF91CF911F910895DE2BF8CF2091C2010C
:100390003091C3014091C4015091C5012417350724
:1003A00021F0682F822F0C9498010895682F809176
:1003B000C4010E9498018091DC019091DD0182309E
:1003C000910538F0880F991F880F991F059701979D
:1003D000F1F7089581E00C94D601CF93DF9390E07C
:1003E000FC01E056FF4F249184579F4FFC018491FC
:1003F0008823D1F090E0880F991FFC01E858FF4F47
:10040000A591B491FC01EE57FF4FC591D491623094
:1004100071F49FB7F8943C91822F809583238C933D
:10042000E8812E2B28839FBFDF91CF9108958FB74E
:10043000F894EC912E2B2C938FBFF6CF3FB7F89406
:1004400080911E0190911F01A0912001B091210186
:1004500026B5A89B05C02F3F19F00196A11DB11D1F
:100460003FBFBA2FA92F982F8827BC01CD01620F5B
:10047000711D811D911D42E0660F771F881F991F16
:100480004A95D1F70895AF92BF92CF92DF92EF9243
:10049000FF920F931F93CF93DF936C017B018B012E
:1004A000040F151FEB015E01AE18BF08C017D1077E
:1004B00059F06991D601ED91FC910190F081E02D08
:1004C000C6010995892B79F7C501DF91CF911F915D
:1004D0000F91FF90EF90DF90CF90BF90AF90089575
:1004E0008EBD00000DB407FEFDCF8EB508950F93AD
:1004F0001F930091C6011091C7012091C80130914E
:10050000C90140E052E16AE770E080E00417150796
:100510002607370740F476956795579547958F5F7F
:100520008630A1F787E0982F906A96958095817024
:100530009CBD8DBD80E01F910F910C94D601CF938F
:10054000C82F0E9477028C2F80620E9470028093D5
:10055000CA01CF910C94EA01CF93C82F0E94770271
:100560008C2F0E9470028093CA018FEF0E9470024C
:10057000C82F0E94EA018C2FCF9108950F931F93EB
:10058000CF93182FC62F0E947702812F80620E947E
:1005900070028093CA0100E011E0C15030F0F80110
:1005A00081918F010E947002F8CFCF911F910F911E
:1005B0000C94EA010E94770280E50E947002809309
:1005C000CA0183E70E9470020C94EA01CF93DF9383
:1005D000D82FC62F0E9477028D2F80620E94700252
:1005E0008093CA018C2F0E947002DF91CF910C94EE
:1005F000EA011F920F920FB60F9211242F933F938F
:100600008F939F93AF93BF9380911A0190911B0199
:10061000A0911C01B0911D013091190123E0230F1D
:100620002D3758F50196A11DB11D20931901809316
:100630001A0190931B01A0931C01B0931D0180919E
:100640001E0190911F01A0912001B09121010196FE
:10065000A11DB11D80931E0190931F01A093200145
:10066000B0932101BF91AF919F918F913F912F91B5
:100670000F900FBE0F901F90189526E8230F02963B
:10068000A11DB11DD2CF1F920F920FB60F92112450
:100690002F933F934F935F936F937F938F939F938A
:1006A000AF93BF93EF93FF9382E291E00E94CC005F
:1006B000FF91EF91BF91AF919F918F917F916F913A
:1006C0005F914F913F912F910F900FBE0F901F9010
:1006D00018951F920F920FB60F9211242F938F939C
:1006E0009F93EF93FF93E0913201F091330180816A
:1006F000E0913801F091390182FD1BC09081809119
:100700003B018F5F8F7320913C01821741F0E09194
:100710003B01F0E0EE5DFE4F958F80933B01FF9132
:10072000EF919F918F912F910F900FBE0F901F907F
:1007300018958081F4CFE2E2F1E01382128288EE14
:1007400093E0A0E0B0E084839583A683B7838AE03A
:1007500091E09183808385EC90E09587848784EC99
:1007600090E09787868780EC90E0918B808B81EC7E
:1007700090E0938B828B82EC90E0958B848B86EC5F
:1007800090E0978B868B118E128E138E148EE0EC78
:10079000F1E089E090E0938382838AE090E09583A2
:1007A000848380E896E9A8E9B0E086839783A087F0
:1007B000B18780E28387128A138A85E0858B81E086
:1007C000868B85E090E0A0E0B0E0848F958FA68FC7
:1007D000B78F8FEB91E09183808314860895CF9338
:1007E000DF9300D0CDB7DEB7789484B5826084BD46
:1007F00084B5816084BD85B5826085BD85B5816025
:1008000085BD80916E00816080936E0010928100A2
:10081000809181008260809381008091810081605D
:10082000809381008091800081608093800080911E
:10083000B10084608093B1008091B00081608093AA
:10084000B00080917A00846080937A0080917A0071
:10085000826080937A0080917A00816080937A0030
:1008600080917A00806880937A001092C10062E0E3
:1008700088E00E94ED011FB7F89480911801811162
:1008800027C0E6E9F0E08491EAEAF0E09491E82FED
:10089000F0E0EE0FFF1FE858FF4FA591B491EC91E7
:1008A000E92321F461E08AE00E94980161E08AE096
:1008B0000E94ED018CB580618CBD8CB580648CBDCF
:1008C00061E08DE00E94ED0161E08BE00E94ED01AE
:1008D000809118018F5F809318011FBF8091C20122
:1008E0009091C3018F3F980709F4AFC02091C401D4
:1008F0003091C5012F3F320709F4A7C08217930733
:1009000041F061E00E94ED0161E08091C4010E942C
:10091000ED0180E00E94C60181E00E94D6010E94A4
:100920001E024B015C01F5E0CF2ED12CE12CF12C05
:100930000E941E02681979098A099B09683E734062
:1009400081059105A8F381E0C81AD108E108F108F2
:10095000E8EE8E0EE3E09E1EA11CB11CC114D10472
:10096000E104F10429F76FE584E00E94E60285E5E1
:1009700090E0A0E0B0E08093D8019093D901A093DB
:10098000DA01B093DB0167E086E00E94E6028DE1C8
:100990000E94AC02182F0E94DA028DE10E94AC0284
:1009A00091E0181390E09093D201882341F018133E
:1009B00002C00E94DA0260E08DE10E94E60210921D
:1009C000D40160E08CE10E94E6021092D6016FE350
:1009D00081E00E94E60263E082E00E94E60280E29B
:1009E0008093CB0111E16091CB01812F0E94E6023F
:1009F0001F5F1731C1F763E083E00E94E60285E0E4
:100A00008093D5016CE40E94E60260E787E00E94D3
:100A1000E60282EE0E949F0281EE0E949F026CE03D
:100A200080E00E94E60280E00E94AC028093D10147
:100A300081FD0BC0682F62606093D10180E00E944D
:100A4000E6028BE19EE40197F1F786E00E94AC029A
:100A5000877D4BE950E060E070E04093D80150930F
:100A6000D9016093DA017093DB01682F606286E040
:100A70000E94E60286E00E94AC0286E00E94AC0280
:100A8000682F676086E00E94E60244E9242E40E079
:100A9000342ECC24C394D12C62E7A62E60E0B62E6F
:100AA00070E0E72E70E0F72E88248394912CECEB15
:100AB000F0E08491E8EAF0E01491F1010491002360
:100AC00009F4A4C081110E946F01E02FF0E0EE0F45
:100AD000FF1FE859FF4FA591B4918C91182309F499
:100AE00095C09A8289826091D5018AE00E94BE02F7
:100AF0006091D50180E10E94BE0280E00E94C601A3
:100B00008091D8019091D9018230910538F0880FF9
:100B1000991F880F991F05970197F1F78091D401CC
:100B2000882319F081EE0E949F026091D1016E7FAF
:100B30006093D10180E00E94E60282E00E94AC0254
:100B4000F5019491B60101C0660F9A95EAF7682BFA
:100B500082E00E94E6028091D60181111DC0809141
:100B6000CB01682E833010F092E0692E782E761833
:100B70000E94770280EA0E9470028093CA018E016F
:100B80000F5F1F4F6A94FFEF6F1651F0F8018191CC
:100B90008F010E947002F6CF712C82E0682EE8CFA0
:100BA0007A94FFEF7F1621F080E00E947002F8CF68
:100BB0000E94EA0181E00E94C6018FB7F89440903C
:100BC0001A0150901B0160901C0170901D018FBF95
:100BD0008FEF0E949F028091CA01807319F52FB791
:100BE000F89480911A0190911B01A0911C01B09181
:100BF0001D012FBF84199509A609B70980369105F3
:100C0000A105B10528F381E08093D701E114F10437
:100C100009F44DCF0E945B01882309F448CF0E945C
:100C2000000045CF80E00E94C60160E787E00E9497
:100C3000E6028091CA0184FFE9CF81EE0E949F0203
:100C4000E5CFEE0FFF1F0590F491E02D0994F89485
:020C5000FFCFD4
:100C520031303237360000000000EE0043028F00D0
:080C62003B01C0009E00B2003E
:00000001FF
